:0300000002015B9F
:0C015B00787FE4F6D8FD7581260201A231
:0604AA0004210000000027
:0F0484007580FFD2A1C2A2D2A0C2A0E580332210
:0E0370007F0212037EAF06E4FD120493E4FF49
:10037E00EF14600C14600E2402700EC2A4D2A322DD
:0A038E00D2A4C2A322C2A4C2A3227B
:1004640012048440FBC2A1C2A28F80D2A0C2A022E7
:1004210012048440FBD2A1D2A2D2A0C2A0D2A1D2F6
:07043100A2D2A0AF80C2A01F
:0104380022A1
:1004740012048440FBC2A1D2A28F80D2A0C2A022C7
:0E049300EF24B8FF120464ED2440FF0204645D
:1003E0007F0212037E7EB8AF061204647F401204BF
:1003F00064E4FDE4FF1204740DBD40F70EBEC0E7D7
:0104000022D9
:0904A100C2A3C2A47F3F0204645F
:10039800E4FE120370120345FF120474740129F974
:1003A800E43AFABD3F057F0112037E0DBD80E60EDB
:0303B800BE04DFA1
:0103BB00221F
:1003BC007E04120370120345FF120474740129F9B0
:1003CC00E43AFABD3F057F0112037E0DBD80E60EB7
:0303DC00BE08DF79
:0103DF0022FB
:0304B100DFFE2249
:10044F00AE07AF061EEF600C7FF51204B17FF512F9
:05045F0004B180EE2253
:10000300E4F5081204A11203E012025C90000074EC
:10001300FFF0A37401F0A304F0A304F09001FF74B4
:10002300F0F0E4F525F5267B017A007900AF24AEE4
:1000330023AD22AC217510027511001201E7EF60A8
:10004300E6E42524F524E5233402F523E43522F5FB
:1000530022E43521F5217B017A0079001203987B94
:10006300017A007900AF24AE23AD22AC21751002D2
:100073007511001201E7EF60E67B017A0079001247
:1000830003BCE42524F524E5233402F523E43522D7
:10009300F522E43521F5217F3212044F05080526A8
:1000A300E52670020525C39445E525940450030213
:0E00B300002AE4F524F523F522F521020025AC
:0402BB00D2937FFF5C
:1002BF00EFC290A2E79292D290C290A2E69292D20F
:1002CF0090C290A2E59292D290C290A2E49292D262
:1002DF0090C290A2E39292D290C290A2E29292D256
:1002EF0090C290A2E19292D290C290A2E09292D24A
:0402FF0090D29222E5
:10030300C290D290A29192E7C290D290A29192E62B
:10031300C290D290A29192E5C290D290A29192E41F
:10032300C290D290A29192E3C290D290A29192E213
:10033300C290D290A29192E1C290D290A29192E007
:02034300FF2297
:10043900E4FD120303AE07EE6009EE640160040DEA
:05044900BD09EFAF0644
:01044E00228B
:10040100EF4440FF1202BFAF131202BFAF1412023A
:10041100BFAF151202BFAF161202BFAF170202BF64
:10025C00E4F509F50AF50BF50C7E01D293FD7FFF51
:10026C001202BF0DBD0AF7C293E4F516F515F5148D
:10027C00F513751795FF120401120439AE07EE64DD
:10028C000160037F0022BE01201202BBC2937516CF
:10029C00007515C07514FF7513007517FF7F0112DB
:0E02AC000401120439AE0780DD1202BB7F018F
:0102BA002221
:0E00C1008B188A19891A8F1E8E1D8D1C8C1BA0
:1000CF00C2938F168E158D148C137517FF7F181210
:1000DF000401120439EF70717FFF1202BF1202BFC9
:1000EF001202BF1F1202BFE4FDFCC3ED9520EC9579
:1000FF001F501CAB18051AE51AAA1970020519141E
:10010F00F9120345FF1202BF0DBD00010C80DBC3C6
:10011F00EC9402500CE4FF1202BF0DBD00010C80E5
:10012F00EE7FFF1202BF1202BF120303AE071203CC
:10013F0003EF60FA53060F1202BBBE0B037F0022C0
:0B014F00BE05037F01227F00227F001D
:01015A002282
:0E01E7008B098A0A890B8F0F8E0E8D0D8C0CE2
:1001F500C2938F168E158D148C137517FF7F1112F0
:100205000401120439EF704C120303BFFEFAE4FD3A
:10021500FCC3ED9511EC9510501C120303AB0905B9
:100225000BE50BAA0A7002050A14F9EF12035E0D1D
:10023500BD00010C80DBC3EC9402500A1203030DD0
:10024500BD00010C80F0120303120303D2931203C5
:06025500037F01227F007F
:01025B002280
:10016700020003E493A3F8E493A34003F68001F2AB
:1001770008DFF48029E493A3F85407240CC8C33399
:10018700C4540F4420C8834004F456800146F6DF68
:10019700E4800B01020408102040809004AAE47E4A
:1001A700019360BCA3FF543F30E509541FFEE4935D
:1001B700A360010ECF54C025E060A840B8E493A324
:1001C700FAE493A3F8E493A3C8C582C8CAC583CA4F
:1001D700F0A3C8C582C8CAC583CADFE9DEE780BE07
:0104B000004B
:10034500BB010689828A83E0225002E722BBFE02B6
:09035500E32289828A83E49322E9
:10035E00BB010689828A83F0225002F722BBFE017E
:02036E00F32278
:00000001FF
