:0300000002017F7B
:0C017F00787FE4F6D8FD75812A0201C6E5
:0604CE00042500000000FF
:0F04A8007580FFD2A1C2A2D2A0C2A0E5803322EC
:0E0394007F021203A2AF06E4FD1204B7E4FFDD
:1003A200EF14600C14600E2402700EC2A4D2A322B9
:0A03B200D2A4C2A322C2A4C2A32257
:100488001204A840FBC2A1C2A28F80D2A0C2A0229F
:100445001204A840FBD2A1D2A2D2A0C2A0D2A1D2AE
:07045500A2D2A0AF80C2A0FB
:01045C00227D
:100498001204A840FBC2A1D2A28F80D2A0C2A0227F
:0E04B700EF24B8FF120488ED2440FF020488F1
:100404007F021203A27EB8AF061204887F40120452
:1004140088E4FDE4FF1204980DBD40F70EBEC0E76A
:0104240022B5
:0904C500C2A3C2A47F3F02048817
:1003BC00E4FE120394120369FF120498740129F9E4
:1003CC00E43AFABD3F057F011203A20DBD80E60E93
:0303DC00BE04DF7D
:0103DF0022FB
:1003E0007E04120394120369FF120498740129F920
:1003F000E43AFABD3F057F011203A20DBD80E60E6F
:03040000BE08DF54
:0104030022D6
:0304D500DFFE2225
:10047300AE07AF061EEF600C7FF51204D57FF512B1
:0504830004D580EE220B
:100003007508011204C512040412028090000074E2
:10001300FFF0A37401F0A304F0A304F09001FF74B4
:10002300F0F0E4F509F50AF50BF50C7B017A00799C
:1000330000AF28AE27AD26AC257514027515001246
:10004300020BEF60E6E42528F528E5273402F527BF
:10005300E43526F526E43525F5257B017A0079007C
:100063001203BC7B017A007900AF28AE27AD26AC22
:100073002575140275150012020BEF60E67B017AF9
:100083000079001203E0E42528F528E5273402F57A
:1000930027E43526F526E43525F525E59064046047
:1000A30003750901E59064056003750A01E5906431
:1000B300066003750B01E59064076003750C01E5A9
:1000C3000A25E025E0FFE50975F008A42FFFE50BFD
:1000D30025E02F250CF50875F00AA4FF120473021E
:0200E3000025F6
:0402DF00D2937FFF38
:1002E300EFC290A2E79292D290C290A2E69292D2EB
:1002F30090C290A2E59292D290C290A2E49292D23E
:1003030090C290A2E39292D290C290A2E29292D231
:1003130090C290A2E19292D290C290A2E09292D225
:0403230090D29222C0
:10032700C290D290A29192E7C290D290A29192E607
:10033700C290D290A29192E5C290D290A29192E4FB
:10034700C290D290A29192E3C290D290A29192E2EF
:10035700C290D290A29192E1C290D290A29192E0E3
:02036700FF2273
:10045D00E4FD120327AE07EE6009EE640160040DA2
:05046D00BD09EFAF0620
:010472002267
:10042500EF4440FF1202E3AF171202E3AF181202C6
:10043500E3AF191202E3AF1A1202E3AF1B0202E3A4
:10028000E4F50DF50EF50FF5107E01D293FD7FFF1D
:100290001202E30DBD0AF7C293E4F51AF519F51839
:1002A000F517751B95FF12042512045DAE07EE6469
:1002B0000160037F0022BE01201202DFC293751A83
:1002C000007519C07518FF751700751BFF7F0112A7
:0E02D000042512045DAE0780DD1202DF7F01FF
:0102DE0022FD
:0E00E5008B1C8A1D891E8F228E218D208C1F60
:1000F300C2938F1A8E198D188C17751BFF7F1812D8
:10010300042512045DEF70717FFF1202E31202E314
:100113001202E31F1202E3E4FDFCC3ED9524EC9508
:1001230023501CAB1C051EE51EAA1D7002051D14E1
:10013300F9120369FF1202E30DBD00010C80DBC35A
:10014300EC9402500CE4FF1202E30DBD00010C809D
:10015300EE7FFF1202E31202E3120327AE0712033C
:1001630027EF60FA53060F1202DFBE0B037F002254
:0B017300BE05037F01227F00227F00F9
:01017E00225E
:0E020B008B0D8A0E890F8F138E128D118C10A1
:10021900C2938F1A8E198D188C17751BFF7F1112B7
:10022900042512045DEF704C120327BFFEFAE4FDAA
:10023900FCC3ED9515EC9514501C120327AB0D0565
:100249000FE50FAA0E7002050E14F9EF1203820DC5
:10025900BD00010C80DBC3EC9402500A1203270D88
:10026900BD00010C80F0120327120327D293120359
:06027900277F01227F0037
:01027F00225C
:10018B00020003E493A3F8E493A34003F68001F287
:10019B0008DFF48029E493A3F85407240CC8C33375
:1001AB00C4540F4420C8834004F456800146F6DF44
:1001BB00E4800B01020408102040809004CEE47E02
:1001CB00019360BCA3FF543F30E509541FFEE49339
:1001DB00A360010ECF54C025E060A840B8E493A300
:1001EB00FAE493A3F8E493A3C8C582C8CAC583CA2B
:1001FB00F0A3C8C582C8CAC583CADFE9DEE780BEE3
:0104D4000027
:10036900BB010689828A83E0225002E722BBFE0292
:09037900E32289828A83E49322C5
:10038200BB010689828A83F0225002F722BBFE015A
:02039200F32254
:00000001FF
