:030000000200D922
:0C00D900787FE4F6D8FD75810802008FE6
:0600B9001200BF75B0FD4E
:0C00BF00E4FFE4FE0EBEFBFC0FBFFBF6EE
:0100CB002212
:0C00CC00E4FFE4FE0EBE3CFC0FBF64F637
:0100D8002205
:1000030075B0FE1200B975B0FB1200BF75B0F712E0
:1000130000BF75B0EF1200BF75B0DF1200BF75B03F
:10002300BF1200BF75B07F1200BF75B0FE0200BFE4
:1000330075B07F1200BF75B0BF1200BF75B0DF127D
:1000430000BF75B0EF1200BF75B0F71200BF75B0F7
:10005300FB1200B975B0FE1200BF75B07F0200BF7E
:0400F10075B0FF22C5
:0C00E50075B0FF1200BFE4F5B00200BFD0
:10006300E590540F640F60231200CCE590540F64A5
:100073000F60182090037508012091037508022072
:0C00830092037508032093037508042203
:10008F00E4F508120063E50824FE600F14601114F4
:10009F006013240370ED12000380E812003380E335
:0A00AF001200F180DE1200E580D996
:00000001FF
