:03000000020130CA
:0C013000787FE4F6D8FD7581200201778D
:1001BC0020202067616F71696E616720202020000C
:1001CC003230313031323330313034332020202052
:1001DC002020002067616F7169616E6700323031D9
:1001EC0030313233303130343300202067616F715D
:0E01FC00696E61670067616F71696E6167000F
:02034200C18078
:0402E5007F647E00B4
:1002E900EF1FAA0670011E4A600BE4FDEDC3947866
:0502F90050EE0D80F73E
:0102FE0022DD
:10025000E5B0F4602A7F057E001202E9E4F511E5BD
:10026000B0F4601985B010E510240360081470081C
:100270007511018003751102E510F460FBAF1122C6
:1000060075B0FF7580FFD288D2A8D2AF1202CA7B24
:10001600FF7A0179BCE4FDFF12020A7BFF7A0179BF
:10002600CC7D01E4FF12020A20000302012F120216
:1000360050E511640160030200DBF5087F1C120223
:10004600FFC374109508FF7BFF7A0179DFE4FD1288
:10005600020AC374109508FF7BFF7A0179E97D01D6
:1000660012020AE5082410FF7BFF7A0179F6E4FD07
:1000760012020AE5082410FF7BFF7A0179E97D0167
:1000860012020A7BFF7A0179F6E4FD7F0F12020A5B
:100096007BFF7A0179E97D017F0F12020A7F147EC8
:1000A600001202E90508E508C39410408F7BFF7A29
:1000B6000179F6E4FD7F0F12020A7BFF7A0179E9E6
:1000C6007D017F0F12020A7F147E001202E9E511FC
:1000D600B40202804FE5116402600302002E7BFF2A
:1000E6007A027901FDFF12020A1202E57BFF7A010C
:1000F60079E97D01E4FF12020A1202E57BFF7A022A
:1001060079017D01E4FF12020A1202E57BFF7A0102
:1001160079E9E4FDFF12020A1202E5E511640160C5
:090126000302002E7F011202FF0A
:01012F0022AD
:0300030002033FB6
:03033F00B20032D7
:0702AD001202FF7F017E0039
:1002B400EF1FAA0670011E4A600BE4FDEDC394789B
:0502C40050EE0D80F773
:0102C9002212
:0D033100C2A0D2A1D2A21202B0AF80C2A21F
:01033E00229C
:1002FF00AC07120331EF20E7F9C2A0C2A1C2A212CC
:09030F0002B08C80D2A2C2A2222D
:10031800AC07120331EF20E7F9D2A0C2A1C2A212A2
:0903280002B08C80D2A2C2A22214
:1002CA007F381202AD7F011202AD7F061202AD7FA6
:0B02DA000C1202FF7F017E000202B444
:0A020A008F098D0A8B0B8A0C890DF9
:10021400E4F50EE50A7008E5094480FF1202FFE5E3
:100224000AB40108E50944C0FF1202FFE4F50EAB6D
:100234000BAA0CA90D850E82758300120280FF1291
:0B0244000318050EE50EC3941040E403
:01024F00228C
:10013C00020006E493A3F8E493A34003F68001F2D3
:10014C0008DFF48029E493A3F85407240CC8C333C4
:10015C00C4540F4420C8834004F456800146F6DF93
:10016C00E4800B0102040810204080900342E47EDE
:10017C00019360BCA3FF543F30E509541FFEE49388
:10018C00A360010ECF54C025E060A840B8E493A34F
:10019C00FAE493A3F8E493A3C8C582C8CAC583CA7A
:1001AC00F0A3C8C582C8CAC583CADFE9DEE780BE32
:0103440000B8
:10028000BB010CE58229F582E5833AF583E0225033
:1002900006E92582F8E622BBFE06E92582F8E2227D
:0D02A000E58229F582E5833AF583E4932297
:00000001FF
