:0300000002093BB7
:0C093B00787FE4F6D8FD75810902088879
:1008000000C4CAD0D3D8DCE0E2E5E8E9ECEEF0F1D0
:10081000F2F4F4F6F7F8000C1B150704100C040CA6
:1008200009140208060216051A0104030508090A3C
:10083000000B0A090808000508090A0A0A0B0A0938
:100840000808000508090A000B0A0908080005083D
:10085000090A0A0A050B0A090A0808040814100400
:100860000C08042008080808100808040C080410E4
:10087000080804081410040C0804240808080808D0
:08088000080C04040C08042418
:10088800758910758DC5758B6875B80275A88A202D
:1008980090FD3090FDE4F508E508C3942E50F0E58E
:1008A8000890082C937006C297C28C8016E50890B1
:1008B800082C93FF90080093F58CEF90081693F599
:1008C8008AD28CE50890085A93F509D28E208EFDBD
:1008D800C28CC297E4FFFE0FBF00010EBE07F8BF2F
:0608E800D0F5050880B206
:03000B000208EEFA
:1008EE00C0E0C083C082C0D075D000C007B297E50B
:1008FE000890082C93FF90080093F58CEF90081643
:0E090E0093F58AD007D0D0D082D083D0E032CB
:03001B0002091CBB
:10091C00C0E0C0D075D000C007758D3C758BB0AFF2
:0F092C00091509EF7002C28ED007D0D0D0E0328B
:00000001FF
