:03000000020248B1
:0C024800787FE4F6D8FD75810C0200DC24
:100185000417049705270417041704970527041770
:10019500052705750620052705750620062006E0B6
:1001A5000620057505270417062006E006200575B7
:1001B5000527041704970310041704970310041761
:1001C50000FF0404040404040404040408040408EB
:1001D50003010301040403010301040404040804E6
:0201E50004080C
:10022B00E4FFFEE4FDFC0DBD00010CED646E4C70B3
:0C023B00F50FBF00010EEF646E4E70E77F
:010247002294
:1000DC00D2AFD2A9758901E4F50CE50C25E0248595
:1000EC00F582E43401F583740193F47002E49360B7
:1000FC00E6E50C25E02485F582E43401F583E493F0
:10010C00FE740193FBAA06E4F9F87F807E8D7D5B7B
:10011C00FC1201E78E0A8F0BAB07AA06E4C39BFF08
:10012C00E49AFE74019400FDE49400FCE4FB7A0173
:10013C00F9F81201E78F08AE0AAF0BAB07AA06E479
:10014C00C39BFFE49AFE74019400FDE49400FCE46C
:10015C00FB7A01F9F81201E7AF038F09D28CE4FBAB
:10016C00E50C9001C793FFEBC39F500612022B0BBB
:09017C0080EEC28C050C0200E6C5
:03000B000202549A
:0902540085088C85098AB29032FC
:1001E700C2D5E830E70FB2D5E4C39BFBE49AFAE443
:1001F70099F9E498F8EC30E717B2D512021D12000E
:100207004AE4C39BFBE49AFAE499F9E498F880037B
:1002170012004A30D50DE4C39FFFE49EFEE49DFD26
:04022700E49CFC2235
:10000E0075F008758200EF2FFFEE33FECD33CDCCA9
:10001E0033CCC58233C5829BED9AEC99E58298402C
:10002E000CF582EE9BFEED9AFDEC99FC0FD5F0D609
:10003E00E4CEFBE4CDFAE4CCF9A88222B800C1B933
:10004E000059BA002DEC8BF084CFCECDFCE5F0CB71
:10005E00F97818EF2FFFEE33FEED33FDEC33FCEBAA
:10006E0033FB10D703994004EB99FB0FD8E5E4F965
:10007E00FA227818EF2FFFEE33FEED33FDEC33FC52
:10008E00C933C910D7059BE99A4007EC9BFCE99A46
:10009E00F90FD8E0E4C9FAE4CCFB2275F010EF2F8B
:1000AE00FFEE33FEED33FDCC33CCC833C810D7078B
:1000BE009BEC9AE899400AED9BFDEC9AFCE899F8C6
:0E00CE000FD5F0DAE4CDFBE4CCFAE4C8F92259
:00000001FF
