:0300000002018377
:0C018300787FE4F6D8FD75812F0201CAD8
:0A065800C0F9A4B0999282F88090D6
:1006080002100102040800000000020E000A021293
:02061800000AD6
:0F063B007580FFD2A1C2A2D2A0C2A0E580332257
:0E04DB007F021204E9AF06E4FD12064AE4FFB8
:1004E900EF14600C14600E2402700EC2A4D2A32271
:0A04F900D2A4C2A322C2A4C2A3220F
:10061B0012063B40FBC2A1C2A28F80D2A0C2A02275
:1005C50012063B40FBD2A1D2A2D2A0C2A0D2A1D298
:0705D500A2D2A0AF80C2A07A
:0105DC0022FC
:10062B0012063B40FBC2A1D2A28F80D2A0C2A02255
:0E064A00EF24B8FF12061BED2440FF02061B32
:10054B007F021204E97EB8AF0612061B7F4012062B
:10055B001BE4FDE4FF12062B0DBD40F70EBEC0E7FA
:01056B00226D
:09066200C2A3C2A47F3F02061BE3
:10050300E4FE1204DB12020FFF12062B740129F919
:10051300E43AFABD3F057F011204E90DBD80E60E02
:03052300BE04DF34
:0105260022B2
:100527007E041204DB12020FFF12062B740129F955
:10053700E43AFABD3F057F011204E90DBD80E60EDE
:03054700BE08DF0C
:01054A00228E
:03000300DFFE22FB
:1005F300AE07AF061EEF600C7FF51200037FF51206
:05060300000380EE225F
:10056C00E4FDFCC3ED9FEC9E5015E4FBFA0BBB00C5
:0F057C00010AEB64784A70F50DBD00010C80E4B4
:01058B00224D
:1005AC008510B0D2A67F027E0012056CC2A6851102
:0905BC00B0D2A712056CC2A722FF
:10049B00AE12AF137C007D6412023A7E007F0ACF4E
:1004AB00CDCFCECCCE12023A74582FF58274063EC5
:1004BB00F583E493F510AE12AF137C007D0A1202A4
:1004CB003A74582DF58274063CF583E493F51122AA
:1003040020A509850E12850F1330A5FD20940975CB
:1003140016007517013094FD209508E4F516F517BD
:100324003095FDE5174516703E20961CC3E50F94E5
:1003340063E50E94005008050FE50F7002050E8565
:100344000E12850F133096FD20971CD3E50F9400F1
:10035400E50E94004008E50F150F7002150E850E8A
:0803640012850F133097FD22F2
:10000E007F0A7E0012056C758901D2A9758C3C752C
:10001E008AB0D28CD2AF12066212054B12036C90CC
:10002E00000074FFF0A37401F0A304F0A304F09099
:10003E0001FF74F0F012049B1205AC120304E513D9
:10004E00451270F17B017A007900AF0BAE0AAD0953
:10005E00AC08751F0275200012028FEF60E6E425D2
:10006E000BF50BE50A3402F50AE43509F509E4351A
:10007E0008F5087B017A0079001205037B017A00EE
:10008E007900AF0BAE0AAD09AC08751F02752000E2
:10009E0012028FEF60E67B017A007900120527E4E9
:1000AE00250BF50BE50A3402F50AE43509F509E4EA
:1000BE003508F5087F641205F3120304E5134512A3
:1000CE006003020043E51764014516600302005207
:0B00DE00F50BF50AF509F508020052C9
:03000B00020413D9
:10041300C0E0C0D0758C3C758AB0E5176401451601
:10042300702F0515E5157002051464144514702129
:10043300F514F515D3E5139400E51294004008E58F
:1004430013151370021512E51345127004F516F512
:0604530017D0D0D0E0320A
:0403CB00D2937FFF4B
:1003CF00EFC290A2E79292D290C290A2E69292D2FE
:1003DF0090C290A2E59292D290C290A2E49292D251
:1003EF0090C290A2E39292D290C290A2E29292D245
:1003FF0090C290A2E19292D290C290A2E09292D239
:04040F0090D29222D3
:10045900C290D290A29192E7C290D290A29192E6D4
:10046900C290D290A29192E5C290D290A29192E4C8
:10047900C290D290A29192E3C290D290A29192E2BC
:10048900C290D290A29192E1C290D290A29192E0B0
:02049900FF2240
:1005DD00E4FD120459AE07EE6009EE640160040DEE
:0505ED00BD09EFAF069F
:0105F20022E6
:10058C00EF4440FF1203CFAF221203CFAF2312036D
:10059C00CFAF241203CFAF251203CFAF260203CF68
:10036C00E4F518F519F51AF51B7E01D293FD7FFF04
:10037C001203CF0DBD0AF7C293E4F525F524F5233E
:10038C00F522752695FF12058C1205DDAE07EE647D
:10039C000160037F0022BE01201203CBC29375259E
:1003AC00007524C07523FF7522007526FF7F01128E
:0E03BC00058C1205DDAE0780DD1203CB7F013C
:0103CA002210
:0E00E9008B278A2889298F2D8E2C8D2B8C2A0F
:1000F700C2938F258E248D238C227526FF7F18129D
:10010700058C1205DDEF70717FFF1203CF1203CF4D
:100117001203CF1F1203CFE4FDFCC3ED952FEC951F
:100127002E501CAB270529E529AA2870020528149B
:10013700F912020FFF1203CF0DBD00010C80DBC3C4
:10014700EC9402500CE4FF1203CF0DBD00010C80AC
:10015700EE7FFF1203CF1203CF120459AE0712042A
:1001670059EF60FA53060F1203CBBE0B037F002231
:0B017700BE05037F01227F00227F00F5
:01018200225A
:0E028F008B188A19891A8F1E8E1D8D1C8C1BD0
:10029D00C2938F258E248D238C227526FF7F1112FC
:1002AD00058C1205DDEF704C120459BFFEFAE4FD0A
:1002BD00FCC3ED9520EC951F501C120459AB18058D
:1002CD001AE51AAA197002051914F9EF1202280D70
:1002DD00BD00010C80DBC3EC9402500A1204590DD1
:1002ED00BD00010C80F0120459120459D29312046E
:0602FD00597F01227F0081
:0103030022D7
:10018F0002000EE493A3F8E493A34003F68001F278
:10019F0008DFF48029E493A3F85407240CC8C33371
:1001AF00C4540F4420C8834004F456800146F6DF40
:1001BF00E4800B0102040810204080900608E47EC2
:1001CF00019360BCA3FF543F30E509541FFEE49335
:1001DF00A360010ECF54C025E060A840B8E493A3FC
:1001EF00FAE493A3F8E493A3C8C582C8CAC583CA27
:1001FF00F0A3C8C582C8CAC583CADFE9DEE780BEDF
:01061A0000DF
:10020F00BB010689828A83E0225002E722BBFE02ED
:09021F00E32289828A83E4932220
:10022800BB010689828A83F0225002F722BBFE01B5
:02023800F322AF
:10023A00BC000BBE0029EF8DF084FFADF022E4CCA8
:10024A00F875F008EF2FFFEE33FEEC33FCEE9DEC71
:10025A00984005FCEE9DFE0FD5F0E9E4CEFD22EDB7
:10026A00F8F5F0EE8420D21CFEADF075F008EF2F01
:10027A00FFED33FD4007985006D5F0F222C398FDF2
:05028A000FD5F0EA228F
:00000001FF
