:03000000020216E3
:0C021600787FE4F6D8FD75810902015ED6
:10000E000000F88BF8F2F95BF9B7FA14FA66FAB950
:10001E00FB03FB4AFB8FFBCFFC0BFC43FC78FCABDA
:10002E00FCDBFD08FD33FD5BFD81FDA5FDC7FDE796
:10003E00FE05FE21FE3CFE55FE6DFE84FE99FEADD4
:10004E00FEC0FE02FEE3FEF3FF02FF10FF1DFF2ABD
:10005E00FF36FF42FF4CFF56FF60FF69FF71FF79CD
:10006E00FF81000417041504171017041504170454
:10007E0015041310100413041508150417041504A1
:10008E001304100413040E18170415041710170484
:10009E001504170415041318100413041508150479
:1000AE00170415041304100413041518170415046B
:1000BE001710170415041704150413101004130455
:1000CE0015081504170415041304100413040E1850
:1000DE0017041A041A101A041C041A04171815040B
:1000EE001704150815041704150413041004100240
:1000FE001302131800141A041A041C041F041E04FD
:10010E001E041C041704150415041710000417040C
:10011E0017041A041C081C0C1004170415041518D7
:10012E0017041A041A0417041A0800041F081E04E0
:10013E001C041E04170800041C041C041E041C04CA
:10014E001A04170415081704150417041A10FFFFD4
:10020400EFD39400400B7EB57DB5DDFEDEFA1F8092
:01021400EFFA
:0102150022C6
:080222007F967E96DEFEDFFAF6
:01022A0022B1
:03000B000201CF20
:1001CF00C0E0C083C082C0D0B295E50825E0240E00
:1001DF00F582E43400F583E493F58CE50825E024FB
:1001EF000FF582E43400F583E493F58AD0D0D08202
:0501FF00D083D0E032C6
:10015E00E4FC758901D2AFD2A9EC25E02470F582BA
:10016E00E43400F583E493F508EC25E02471F58280
:10017E00E43400F583E493F509E508700AC28CAF08
:10018E00091202040C80D2E508B4FF0BC28C7F1E4C
:10019E00120204E4FC80C2EC25E02472F582E43401
:1001AE0000F583E493B5080FD28CAF09120204C296
:1001BE008C1202220C80A2D28CAF091202040C8087
:0101CE009898
:00000001FF
