:0300000002018E6C
:0C018E00787FE4F6D8FD75811402000EA5
:10009800050101050101060102050102010202072D
:1000A8000104050101050101060102050102020220
:1000B8000201020405010105010105020203020211
:1000C80001020207010206010204020104020103FF
:1000D8000202010202020202010204F2F3F5F5F63D
:1000E800F7F8F9F9FAFAFBFBFCFCFCFDFDFDFDFE57
:1000F800FEFEFEFEFEFEFF42C117B6D0D1B621E1DC
:100108008CD868E95B8FEE446BB4F42D4777A2B6C0
:03011800DAFA16FA
:02011B008F0F44
:10011D00E4F510E510C3950F5039E4F514F513F51A
:10012D0012F511E47F407E1FFDFCAB14AA13A9123A
:10013D00A811C31201635017E5142401F514E43519
:10014D0013F513E43512F512E43511F51180D405CC
:05015D001080C0C28CFF
:01016200227A
:03000B000201747B
:0D017400C28CB29085098C850A8AD28C322B
:0D01810085098C850A8AD28CAF0802011B0B
:10000E00C290758901D2AFD2A9E4F50BF50CC3E508
:10001E000C944BE50B940050F07499250CF58274FA
:10002E0000350BF583E49375F007A4FF7498250C47
:10003E00F5827400350BF583E4937C002FFFEC35CD
:10004E00F0CF24FFF50EEF34FFF50DFE74E3250E11
:10005E00F58274003EF583E493F50974FF250EF5E1
:10006E008274003EF583E493F50A749A250CF582AA
:10007E007400350BF583E493F5087403250CF50C29
:0A008E00E4350BF50B1201818084AC
:10016300EB9FF5F0EA9E42F0E99D42F0E89C45F0F2
:010173002269
:00000001FF
