:0300000002012CCE
:0C012C00787FE4F6D8FD75810D02009686
:100076003031323334353637383961626364656618
:100086002031323334353637383961626364656618
:100096001200D17BFF7A007976E4FDFF1200037B24
:0E00A600FF7A0079867D01E4FF12000380FEE0
:0700B4001200EC7F017E0049
:1000BB00EF1FAA0670011E4A600BE4FDEDC3947896
:0500CB0050EE0D80F76E
:0100D000220D
:0D011E00C2A0D2A1D2A21200B7AF80C2A22F
:01012B0022B1
:1000EC00AC0712011EEF20E7F9C2A0C2A1C2A212F6
:0900FC0000B78C80D2A2C2A2223E
:10010500AC0712011EEF20E7F9D2A0C2A1C2A212CC
:0901150000B78C80D2A2C2A22224
:1000D1007F381200B47F011200B47F061200B47F92
:0B00E1000C1200EC7F017E000200BB4F
:0A0003008F088D098B0A8A0B890C07
:10000D00E4F50DE5097008E5084480FF1200ECE504
:10001D0009B40108E50844C0FF1200ECE4F50DAB8E
:10002D000AAA0BA90C850D82758300120049FF12D7
:0B003D000105050DE50DC3941040E423
:010048002295
:10004900BB010CE58229F582E5833AF583E022506C
:1000590006E92582F8E622BBFE06E92582F8E222B6
:0D006900E58229F582E5833AF583E49322D0
:00000001FF
