:030000000200CD2E
:0C00CD00787FE4F6D8FD75810A0201146A
:10000E0018301C1020401C10181020101C10184006
:10001E001C2020201C2018202080FF20301C1018AF
:10002E002015201C202020264020202B202620209A
:10003E00203080FF20201C101810202026202B207E
:10004E0030202B4020201C101810202026202B2082
:10005E0030202B4020301C10182015201C20202072
:10006E00264020202B2026202020308020301C10DF
:10007E0020101C10202026202B2030202B40201555
:10008E001F0520101C10202026202B2030202B4056
:10009E0020301C10182015201C2020202640202047
:1000AE002B2026202020303020301C1018401C2001
:0F00BE00202026401360182015401340188000A2
:03000300010A00EF
:03000B000201E906
:0901E900758CD8758AEF150A32F5
:1001BB00EF75F003A4FFAEF0EF1F70011E144E702D
:0101CB00F73C
:0101CC002210
:1001A500AC078D0AD28CE50A6009B295AF0412013D
:0601B500BB80F3C28C22A6
:10018C00D3EF9400EE9400400F7D267C82DCFEDDE4
:08019C00FAEF1F70EB1E80E872
:0101A4002238
:0D01DC00758901758CD8758AEF75A882228F
:10015900E4FBEB90000E93FA700122BAFF0C0B7FBF
:0A0169000A7E0012018CC28C80E8AF
:10017300AF030BEF90000E93F508AF030BEF93F56E
:0701830009FDAF081201A500
:02018A0080CF24
:0F01CD001201DC1201597F2C7E0112018C80F48B
:1000D9000201CDE493A3F8E493A34003F68001F26F
:1000E90008DFF48029E493A3F85407240CC8C33328
:1000F900C4540F4420C8834004F456800146F6DFF7
:10010900E4800B0102040810204080900003E47E83
:10011900019360BCA3FF543F30E509541FFEE493EB
:10012900A360010ECF54C025E060A840B8E493A3B2
:10013900FAE493A3F8E493A3C8C582C8CAC583CADD
:10014900F0A3C8C582C8CAC583CADFE9DEE780BE95
:0100060000F9
:00000001FF
