:03000000020929C9
:0C092900787FE4F6D8FD75810D0208937C
:100873003231373134313134393820363636363641
:100883002052656E7A6568756120446568756100FC
:100893001208CE7BFF7A087973E4FDFF1208007B10
:0E08A300FF7A0879837D01E4FF12080080FED1
:0708B1001208E97F017E003F
:1008B800EF1FAA0670011E4A600BE4FDEDC3947891
:0508C80050EE0D80F769
:0108CD002208
:0D091B00C2A0D2A1D2A21208B4AF80C2A225
:0109280022AC
:1008E900AC0712091BEF20E7F9C2A0C2A1C2A212EC
:0908F90008B48C80D2A2C2A22234
:10090200AC0712091BEF20E7F9D2A0C2A1C2A212C2
:0909120008B48C80D2A2C2A2221A
:1008CE007F381208B17F011208B17F061208B17F7E
:0B08DE000C1208E97F017E000208B840
:0A0800008F088D098B0A8A0B890C02
:10080A00E4F50DE5097008E5084480FF1208E9E5FA
:10081A0009B40108E50844C0FF1208E9E4F50DAB84
:10082A000AAA0BA90C850D82758300120846FF12CD
:0B083A000902050DE50DC3941040E419
:010845002290
:10084600BB010CE58229F582E5833AF583E0225067
:1008560006E92582F8E622BBFE06E92582F8E222B1
:0D086600E58229F582E5833AF583E49322CB
:00000001FF
