:03000000020003F8
:0C000300787FE4F6D8FD75810902004A00
:100139003F065B4F666D7D077F6F777C395E79710E
:0601560001091001081070
:040117007F017E00E6
:10011B00D3EF9400EE940040147D727C00ED1D70C3
:0D012B00011CED4C70F7EF1F70E61E80E325
:0101380022A4
:10008F0075900F120117E590640F24FE601124FE86
:10009F00601224FC601324077014E4F508801275B5
:1000AF000801800D75080280087508038003750824
:1000BF00107590F0120117E590C4540F640F24FED1
:1000CF00600B24FE600B24FC600B24072274048059
:0B00DF000674088002740C2508F50868
:0100EA0022F3
:0C014900E4FB12011763B0010BBB64F66D
:010155002287
:1000EB00E4F5807590F0E59064F0600312008FE505
:1000FB00096508600EE50890013993F580120149F6
:0C010B008508097F0A7E0012011B80D7C6
:10000F000200EBE493A3F8E493A34003F68001F21C
:10001F0008DFF48029E493A3F85407240CC8C333F2
:10002F00C4540F4420C8834004F456800146F6DFC1
:10003F00E4800B0102040810204080900156E47EFA
:10004F00019360BCA3FF543F30E509541FFEE493B6
:10005F00A360010ECF54C025E060A840B8E493A37D
:10006F00FAE493A3F8E493A3C8C582C8CAC583CAA8
:10007F00F0A3C8C582C8CAC583CADFE9DEE780BE60
:01015C0000A2
:00000001FF
