:100E0300504944434F4E54524F4C006163637275D3
:100E1300617465005072657373203120746F2073A1
:100E230074617274005072657373203320746F2081
:100E33006261636B0000000000000000000000001E
:100E4300000000000000000000000000000000009F
:100E5300000000000000000000000000000000008F
:100E6300000000000000000000000000000000007F
:100E7300000000000000000000000000000000006F
:051233000000000000B6
:1016160042018400085C027DC0400000C00000005A
:10162600BF800000000000003F8000004000000076
:10163600404000005C018AC0400000C0000000BFBE
:10164600800000000000003F8000004000000040D5
:101656004000005C01FFC0400000C0000000BF80E9
:101666000000000000003F800000400000004040F5
:1016760000005C01D9C0400000C0000000BF80002F
:1016860000000000003F80000040000000404000D5
:10169600005C01B6C0400000C0000000BF80000032
:1016A600000000003F8000004000000040400000B5
:1016B6005C002600000000000000000000000000A2
:1016C6000000000000000000000000000000005CB8
:1016D6000000000000000000000000000000000004
:1016E60000000000000000000000000000005C0395
:1016F6008D00000000000000000000000000000057
:101706000000000000000000000000000044004649
:1017160043160000440042C31600004403034396E8
:1017260000004402FBC39600004400224248000029
:1017360044001EC24800004403A93DCCCCCD44035E
:1017460089BDCCCCCD4403853C23D70A440381BC58
:1017560023D70A4401AC00000000440180000000C9
:10176600006062031F000300030002000200010084
:10177600000000000300030002000100010000FF5A
:10178600FF00020002000200010000FFFFFFFF0051
:1017960002000200010000FFFFFFFEFFFE00010045
:1017A600010000FFFFFFFFFFFEFFFE00010000FF3C
:1017B600FFFFFEFFFEFFFEFFFD00000000FFFEFF35
:1017C600FEFFFEFFFDFFFD60620299FFFDFFFDFFCC
:1017D600FEFFFEFFFF00000000FFFDFFFDFFFEFF16
:1017E600FFFFFF00000000FFFDFFFEFFFFFFFF0001
:1017F6000000010001FFFEFFFEFFFF0000000100E8
:10180600020002FFFEFFFF000000010001000200CF
:1018160003000000000001000100020003000300B5
:1018260000000000010002000200030003606202E3
:101836001B0001FFFFFFFDFFFDFFFDFFFE00010096
:1018460001FFFFFFFDFFFEFFFEFFFF00000000FFA0
:10185600FFFFFEFFFEFFFFFFFF00000000FFFFFF90
:10186600FFFFFFFFFFFFFF00000000000000000079
:10187600000000000000000003FFFF00010001005F
:101886000100010003000300020002000200010043
:1018960001000358030700000000000000000000DC
:1018A60000000000000000000000000000006100D1
:1018B600007C0000000000000000000000000000A6
:1018C6000000000000000000000000000000000012
:1018D6000000000000000000000000000000000002
:1018E60000000000000000000000000000000000F2
:1018F60000000000000000000000000000000000E2
:1019060000000000000000000000000000000000D1
:1019160000000000000000000000000000000000C1
:1019260000000000000000000000000000000000B1
:1019360000000000000000000000000000000000A1
:101946000000000000000000000000000000000091
:101956000000000000000000000000000000000081
:101966000000000000000000000000000000000071
:101976000000000000000000000000000000000061
:101986000000000000000000000000000000000051
:101996000000000000000000000000000000000041
:1019A6000000000000000000000000000000000031
:0219B60000002F
:1029FE009001D41206F0000000009001A61206F01D
:102A0E00000000009001861206F000000000900009
:102A1E00621206F0000000009000561206F0000050
:0D2A2E00000090004A1206F0000000002297
:1019BD00C004C005C006C0079003C4E0FCA3E0FD51
:1019CD00A3E0FEA3E0FF9003FC1206E49003D8E031
:1019DD00FCA3E0FDA3E0FEA3E0FF9004001206E4EB
:1019ED00D007D006D005D00412287390005A1206E5
:1019FD00E49003CCE0FCA3E0FDA3E0FEA3E0FF90A8
:101A0D0003FC1206E49003DCE0FCA3E0FDA3E0FE82
:101A1D00A3E0FF9004001206E49003C8E0FCA3E0ED
:101A2D00FDA3E0FEA3E0FF1228739001F91206E476
:101A3D009001F9E0FCA3E0FDA3E0FEA3E0FF90031D
:101A4D00FC1206E490005AE0FCA3E0FDA3E0FEA327
:101A5D00E0FF1207FE121238121F459003D4E0FC6E
:101A6D00A3E0FDA3E0FEA3E0FF9003FC1206E490CB
:101A7D000062E0FCA3E0FDA3E0FEA3E0FF90040004
:101A8D001206E49003D01227899000761206E49096
:101A9D0003E4E0FCA3E0FDA3E0FEA3E0FF9003FC64
:101AAD001206E4900056E0FCA3E0FDA3E0FEA3E0E7
:101ABD00FF9004001206E49003E012278990006A5B
:101ACD001206E49003ECE0FCA3E0FDA3E0FEA3E02E
:101ADD00FF9003FC1206E490004AE0FCA3E0FDA396
:101AED00E0FEA3E0FF9004001206E49003E8122745
:101AFD00899000661206E490004A1206F00000007C
:101B0D00009000561206F0000000009000621206D0
:101B1D00F0000000009001D4E0FCA3E0FDA3E0FE86
:101B2D00A3E0FF900076E0F8A3E0F9A3E0FAA3E0CC
:101B3D00FB1200859001D41206E49001A6E0FCA3EF
:101B4D00E0FDA3E0FEA3E0FF90006AE0F8A3E0F95A
:101B5D00A3E0FAA3E0FB1200859001A61206E49023
:101B6D000186E0FCA3E0FDA3E0FEA3E0FF9000668C
:101B7D00E0F8A3E0F9A3E0FAA3E0FB1200859001E1
:101B8D00861206E4E4FFFEFDFC9001D4E0F8A3E02C
:101B9D00F9A3E0FAA3E0FB12031C500A9001D41242
:101BAD0006F000000000E4FFFEFDFC9001A6E0F849
:101BBD00A3E0F9A3E0FAA3E0FB12031C500A900185
:101BCD00A61206F000000000E4FFFEFDFC90018669
:101BDD00E0F8A3E0F9A3E0FAA3E0FB12031C500A1E
:101BED009001861206F0000000009000761206F0BB
:101BFD000000000090006A1206F000000000900046
:101C0D00661206F0000000009003F0E0F8A3E0F982
:101C1D00A3E0FAA3E0FB9003D8E0FCA3E0FDA3E072
:101C2D00FEA3E0FF1200819001D4E0F8A3E0F9A338
:101C3D00E0FAA3E0FB120176C004C005C006C007A0
:101C4D009003D8E0FCA3E0FDA3E0FEA3E0FF90012C
:101C5D00A6E0F8A3E0F9A3E0FAA3E0FB120176D029
:101C6D0003D002D001D000120085C004C005C0060B
:101C7D00C007E4FFFEFD7C409003F0E0F8A3E0F91F
:101C8D00A3E0FAA3E0FB120176A804A905AA06AB0E
:101C9D00079003D8E0FCA3E0FDA3E0FEA3E0FF1254
:101CAD0000819003F4E0F8A3E0F9A3E0FAA3E0FBD0
:101CBD00120085900186E0F8A3E0F9A3E0FAA3E015
:0F1CCD00FB120176D003D002D001D000120085A7
:011CDC0022E5
:062873009003F81206E4D8
:102879009003FCE0F8A3E0F9A3E0FAA3E0FBA3E0EE
:10288900FCA3E0FDA3E0FEA3E0FF120081E4FBFA54
:1028990079C07840120176C004C005C006C007900F
:1028A90003FCE0F8A3E0F9A3E0FAA3E0FB9003F846
:1028B900E0FCA3E0FDA3E0FEA3E0FF120081A80471
:1028C900A905AA06AB07D007D006D005D004120285
:0B28D9007FE4FBFA794078C012008514
:0128E40022D1
:0607FE009003F81206E46E
:1008040090027DE0FCA3E0FDA3E0FEA3E0FF9003E3
:10081400F8E0F8A3E0F9A3E0FAA3E0FB12031C60FC
:10082400025003020A81900295E0FCA3E0FDA3E0DC
:10083400FEA3E0FF9003F8E0F8A3E0F9A3E0FAA335
:10084400E0FB12031C4003020A81E4900400F0A3BD
:10085400F0900185E024FEFF900184E034FFFE90D7
:100864000400E0FCA3E0FDC39FEE6480F8EC648028
:10087400984003020B04EDAE047802C333CE33CEAA
:10088400D8F9247DF58274023EF583E0FCA3E0FDF3
:10089400A3E0FEA3E0FF9003F8E0F8A3E0F9A3E0EF
:1008A400FAA3E0FB12031C5003020A70900400E058
:1008B400FEA3E07802C333CE33CED8F92481F58287
:1008C40074023EF583E0FCA3E0FDA3E0FEA3E0FF99
:1008D4009003F8E0F8A3E0F9A3E0FAA3E0FB120325
:1008E4001C60054003020A70900400E0FEA3E07857
:1008F40002C333CE33CED8F92481F58274023EF597
:1009040083E0F8A3E0F9A3E0FAA3E0FB9003F8E0A6
:10091400FCA3E0FDA3E0FEA3E0FF12008112039517
:10092400C004C005C006C007900400E0FEA3E07840
:1009340002C333CE33CED8F9247DF58274023EF55A
:1009440083E0F8A3E0F9A3E0FAA3E0FBC000C00150
:10095400C002C003900400E0FEA3E07802C333CEDB
:1009640033CED8F92481F58274023EF583E0FCA3EA
:10097400E0FDA3E0FEA3E0FFD003D002D001D0004D
:10098400120081A804A905AA06AB07D007D006D097
:1009940005D00412027F90004E1206E4900400E099
:1009A400FEA3E07802C333CE33CED8F9247DF5829A
:1009B40074023EF583E0F8A3E0F9A3E0FAA3E0FBB8
:1009C400C000C001C002C003900400E0FEA3E078B0
:1009D40002C333CE33CED8F92481F58274023EF5B6
:1009E40083E0FCA3E0FDA3E0FEA3E0FFD003D0027C
:1009F400D001D000120081C004C005C006C0079019
:100A04000400E0FEA3E07802C333CE33CED8F92449
:100A140081F58274023EF583E0F8A3E0F9A3E0FADD
:100A2400A3E0FB9003F8E0FCA3E0FDA3E0FEA3E059
:100A3400FF120081D003D002D001D00012027FE463
:100A4400FBFA7980783F1200859000521206E490F8
:100A54000400E0FEA3E0FF9001F5EEF0A3EFF02424
:100A640001FFE43EA3F0A3EFF0020B04900401E0C5
:100A740004F07006900400E004F002085590027D32
:100A8400E0FCA3E0FDA3E0FEA3E0FF9003F8E0F8A0
:100A9400A3E0F9A3E0FAA3E0FB12031C6002501CDC
:100AA40090004E1206F03F8000009000521206F0B3
:100AB40000000000E49001F5F0A3803D900295E071
:100AC400FCA3E0FDA3E0FEA3E0FF9003F8E0F8A39D
:100AD400E0F9A3E0FAA3E0FB12031C402390004ECC
:100AE4001206F03F8000009000521206F000000051
:100AF400009001F5E4F0A37406F074FFA3F0A3F0F2
:100B040090018AE0FCA3E0FDA3E0FEA3E0FF9003D4
:100B1400FCE0F8A3E0F9A3E0FAA3E0FB12031C60F5
:100B2400025003020D7F9001A2E0FCA3E0FDA3E0CC
:100B3400FEA3E0FF9003FCE0F8A3E0F9A3E0FAA32E
:100B4400E0FB12031C4003020D7FE4900400F0A3B9
:100B5400F0900185E024FEFF900184E034FFFE90D4
:100B64000400E0FCA3E0FDC39FEE6480F8EC648025
:100B7400984003020E02EDAE047802C333CE33CEA6
:100B8400D8F9248AF58274013EF583E0FCA3E0FDE4
:100B9400A3E0FEA3E0FF9003FCE0F8A3E0F9A3E0E8
:100BA400FAA3E0FB12031C5003020D6E900400E054
:100BB400FEA3E07802C333CE33CED8F9248EF58277
:100BC40074013EF583E0FCA3E0FDA3E0FEA3E0FF97
:100BD4009003FCE0F8A3E0F9A3E0FAA3E0FB12031E
:100BE4001C60054003020D6E900400E0FEA3E07853
:100BF40002C333CE33CED8F9248EF58274013EF588
:100C040083E0F8A3E0F9A3E0FAA3E0FB9003FCE09F
:100C1400FCA3E0FDA3E0FEA3E0FF12008112039514
:100C2400C004C005C006C007900400E0FEA3E0783D
:100C340002C333CE33CED8F9248AF58274013EF54B
:100C440083E0F8A3E0F9A3E0FAA3E0FBC000C0014D
:100C5400C002C003900400E0FEA3E07802C333CED8
:100C640033CED8F9248EF58274013EF583E0FCA3DB
:100C7400E0FDA3E0FEA3E0FFD003D002D001D0004A
:100C8400120081A804A905AA06AB07D007D006D094
:100C940005D00412027F9003AD1206E4900400E034
:100CA400FEA3E07802C333CE33CED8F9248AF5828A
:100CB40074013EF583E0F8A3E0F9A3E0FAA3E0FBB6
:100CC400C000C001C002C003900400E0FEA3E078AD
:100CD40002C333CE33CED8F9248EF58274013EF5A7
:100CE40083E0FCA3E0FDA3E0FEA3E0FFD003D00279
:100CF400D001D000120081C004C005C006C0079016
:100D04000400E0FEA3E07802C333CE33CED8F92446
:100D14008EF58274013EF583E0F8A3E0F9A3E0FACE
:100D2400A3E0FB9003FCE0FCA3E0FDA3E0FEA3E052
:100D3400FF120081D003D002D001D00012027FE460
:100D4400FBFA7980783F1200859003B11206E49093
:100D54000400E0FEA3E0FF90017CEEF0A3EFF0249A
:100D640001FFE43EA3F0A3EFF022900401E004F0BD
:100D74007006900400E004F0020B5590018AE0FC38
:100D8400A3E0FDA3E0FEA3E0FF9003FCE0F8A3E0F2
:100D9400F9A3E0FAA3E0FB12031C6002501C9003C9
:100DA400AD1206F03F8000009003B11206F000007F
:100DB4000000E490017CF0A3803D9001A2E0FCA33C
:100DC400E0FDA3E0FEA3E0FF9003FCE0F8A3E0F95C
:100DD400A3E0FAA3E0FB12031C40239003AD120628
:100DE400F03F8000009003B11206F0000000009074
:0E0DF400017CE4F0A37406F074FFA3F0A3F0FA
:010E020022CD
:10123800E49003F8F0A3F0900185E024FFFF90010B
:1012480084E034FFFE9003F8E0FCA3E0FDD39FEEBA
:101258006480F8EC6480985061EDAE047802C33382
:10126800CE33CED8F9FBAA062426F58274003AF5C7
:10127800831206F00000000074002BF58274003A17
:10128800F5831206F0000000009003F8E0FEA3E0EA
:101298007802C333CE33CED8F9248DF58274033E59
:1012A800F5831206F0000000009003F9E004F070E6
:1012B800869003F8E004F002123FE49003F8F0A3EC
:1012C800F09003F8E0FEA3E0FFC39402EE6480947C
:1012D800804003021615EF25E0FFEE33FE74F52F6C
:1012E800F58274013EF583E0FEA3E0F47002EEF4AB
:1012F8007003021604E49003FAF0A3F09003FAE0F6
:10130800FEA3E0FFC39402EE6480948040030216BB
:1013180004EF25E0FFEE33FE747C2FF58274013E66
:10132800F583E0FEA3E0F47002EEF470030215F317
:101338009003FBE025E0FF9003FAE033FE747C2F76
:10134800F58274013EF583A3E025E0FD0582D58290
:101358000215831582E033FC9003F9E025E0FF9045
:1013680003F8E033FE74F52FF58274013EF583E04F
:10137800FAA3E0FB90031F75F00E120745EA75F01B
:101388000EA42583F583E5822DF582E5833CF5835C
:10139800E0FEA3E02403FFE43E9003FCF0A3EFF09B
:1013A80090029975F00EEB120745EA75F00EA42528
:1013B80083F583E5822DF582E5833CF583E0FEA382
:1013C800E02403FFE43E9003FEF0A3EFF09003F95E
:1013D800E025E0FF9003F8E033FE74F52FF5827402
:1013E800013EF583E0FEA3E090021B75F00E1207A4
:1013F80045EE75F00EA42583F583E5822DF582E58B
:10140800833CF583E0FEA3E02403FFE43E90040060
:10141800F0A3EFF09003FCE0FEA3E07802C333CE24
:1014280033CED8F92426F58274003EF583C083C0F4
:1014380082E0F8A3E0F9A3E0FAA3E0FBC000C00152
:10144800C002C0039003FAE0FEA3E07802C333CEE3
:1014580033CED8F924ADF58274033EF583E0FCA3BE
:10146800E0FDA3E0FEA3E0FFC004C005C006C0077E
:101478009003F8E0FEA3E07802C333CE33CED8F968
:10148800244EF58274003EF583E0F8A3E0F9A3E06A
:10149800FAA3E0FBD007D006D005D004120176D01D
:1014A80003D002D001D000120085D082D08312066A
:1014B800E49003FEE0FEA3E07802C333CE33CED837
:1014C800F92400F58274003EF583C083C082E0F8F9
:1014D800A3E0F9A3E0FAA3E0FBC000C001C002C08A
:1014E800039003FAE0FEA3E07802C333CE33CED8EC
:1014F800F924ADF58274033EF583E0FCA3E0FDA377
:10150800E0FEA3E0FFC004C005C006C0079003F8D2
:10151800E0FEA3E07802C333CE33CED8F9244EF5EB
:101528008274003EF583E0F8A3E0F9A3E0FAA3E0B3
:10153800FBD007D006D005D004120176D003D00224
:10154800D001D000120085D082D0831206E4900426
:1015580000E0FEA3E07802C333CE33CED8F9248D61
:10156800F58274033EF583C083C082E0F8A3E0F9F6
:10157800A3E0FAA3E0FBC000C001C002C0039003CF
:10158800FAE0FEA3E07802C333CE33CED8F924AD17
:10159800F58274033EF583E0FCA3E0FDA3E0FEA31F
:1015A800E0FFC004C005C006C0079003F8E0FEA332
:1015B800E07802C333CE33CED8F9244EF5827400D6
:1015C8003EF583E0F8A3E0F9A3E0FAA3E0FBD00737
:1015D800D006D005D004120176D003D002D001D0B5
:0B15E80000120085D082D0831206E4C0
:1015F3009003FBE004F070069003FAE004F002139A
:10160300049003F9E004F070069003F8E004F0029C
:0216130012C9FA
:0116150022B2
:101F4500E49003F8F0A3F0900185E024FFFF9001F1
:101F550084E034FFFEC39003F9E09FEE6480F890BF
:101F650003F8E0648098400302210A900062E0F8DB
:101F7500A3E0F9A3E0FAA3E0FBC000C001C002C0E2
:101F8500039003F8E0FEA3E07802C333CE33CED846
:101F9500F92426F58274003EF583E0FCA3E0FDA359
:101FA500E0FEA3E0FFC004C005C006C0079003F82B
:101FB500E0FEA3E07802C333CE33CED8F924FFF593
:101FC5008274013EF583E0F8A3E0F9A3E0FAA3E00B
:101FD500FBD007D006D005D004120176D003D0027D
:101FE500D001D0001200859000621206E4900056E0
:101FF500E0F8A3E0F9A3E0FAA3E0FBC000C001C04C
:1020050002C0039003F8E0FEA3E07802C333CE33A9
:10201500CED8F92400F58274003EF583E0FCA3E0F8
:10202500FDA3E0FEA3E0FFC004C005C006C0079005
:1020350003F8E0FEA3E07802C333CE33CED8F9240B
:10204500D9F58274013EF583E0F8A3E0F9A3E0FA3F
:10205500A3E0FBD007D006D005D004120176D0034B
:10206500D002D001D0001200859000561206E490EF
:10207500004AE0F8A3E0F9A3E0FAA3E0FBC000C042
:1020850001C002C0039003F8E0FEA3E07802C33369
:10209500CE33CED8F9248DF58274033EF583E0FC6A
:1020A500A3E0FDA3E0FEA3E0FFC004C005C006C099
:1020B500079003F8E0FEA3E07802C333CE33CED811
:1020C500F924B6F58274013EF583E0F8A3E0F9A39F
:1020D500E0FAA3E0FBD007D006D005D004120176C4
:1020E500D003D002D001D00012008590004A12061C
:1020F500E49003F9E004F06003021F4C9003F8E05C
:0521050004F0021F4C74
:01210A0022B2
:0B278900E0FCA3E0FDA3E0FEA3E0FFE6
:062794009003F81206E4B8
:10279A00E4FFFE7D407C40900400E0F8A3E0F9A34A
:1027AA00E0FAA3E0FB120085C004C005C006C0071A
:1027BA009003FCE0F8A3E0F9A3E0FAA3E0FB90039E
:1027CA00F8E0FCA3E0FDA3E0FEA3E0FF120081D045
:1027DA0003D002D001D000120176E4FBFA79C07866
:1027EA004012027F9003FCE0F8A3E0F9A3E0FAA309
:0527FA00E0FB12008568
:0127FF0022B7
:1029B300740B75F0B8120582900002120721000013
:1029C3000000900012E4F5F01205A1900014E4F564
:1029D300F01205A19000061207213F80000090002D
:1029E3000A1207213CCCCCCD90000E1207213B8369
:0B29F300126F900016E4F5F00205A141
:0B210B009003B9EBF0A3EAF0A3E9F0A9
:102116009003B9E0FBA3E0FAA3E0F912051FC39D03
:10212600FEE5F09C9003BCF0A3CEF0E92402F9E4AE
:102136003AFAC003C002C0011206C49003BCE0FE16
:10214600A3E0FFEE3395E0FDFCEB2FFFEA3EFEE950
:102156003DFDE83CFCD001D002D0031206AA900354
:10216600B9E0FBA3E0FAA3E0F990001212054AFFDA
:102176009003BCE0FAA3E0FBC39FFEEA95F0A3F050
:10218600A3CEF09003C41206F0C4FA00009003C870
:102196001206F043FA00009003CC1206F0C3FA00D0
:1021A600009003D01206F0424800009003D41206B5
:1021B600F0C2480000AD03AC02EC1203AB9003D8AA
:1021C6001206E49003BEE0FCA3E0FDEC1203AB9024
:1021D60003DC1206E49003E01206F03DCCCCCD9071
:1021E60003E41206F0BDCCCCCD9003E81206F03C19
:1021F60023D70A9003EC1206F0BC23D70A9003B942
:10220600E0FBA3E0FAA3E0F990001212054AFDAC48
:10221600F0EC1203AB9003F01206E49003B9E0FB76
:10222600A3E0FAA3E0F990001412054AFDACF0EC25
:102236001203AB9003F41206E47F007E007DFA7C65
:10224600441219BD1203E49003B9E0FBA3E0FAA31C
:10225600E0F9900016EE8FF01205A190001212051B
:102266004AFF900014E5F08FF01205A19003BCE040
:0C227600FFA3E0900012CF8FF00205A142
:102A71007BFF7A0E7903E4FDFF12001E7BFF7A0EC5
:102A8100790EE4FD7F0112001E7BFF7A0E7917E4B7
:102A9100FD7F0212001E7BFF7A0E7928E4FD7F0381
:032AA10002001E12
:092CC100D2AB53890F43891022A4
:03001B00022B1C99
:102B1C00C0E0C083C0829001B1E004F07006900167
:102B2C00B0E004F0758D00758B00D082D083D0E0BE
:012B3C003266
:10295000120003122B7E122C9F122CC17FBA7E0113
:10296000122C2B122CAC122C727F01122CCA1200CA
:1029700016D28EE49001B0F0A3F09001B4F0A3F071
:102980009001D804F090007A7414F0A3747CF09055
:10299000001C740AF0A374F0F0E4900060F0A3F05F
:1029A000900074F0A3F090005EF0A3F0900072F03D
:0329B000A3F0226F
:1024A6009001B1E05407640160030225829001D8CF
:1024B600E0FF64016003022582122BBB900060EEF0
:1024C600F0A3EFF090007AE0FEA3E0FF900060E05A
:1024D600FCA3E0FD120751E4FB7A10F9F812060A94
:1024E600900074EEF0A3EFF07B017A037907900079
:1024F60074E0FCA3E0FD12210B90031DE0FEA3E0B7
:10250600FF900075E02FFF900074E03E900072F09F
:10251600A3EFF0900072E0FEA3E0FF7C107D0012B6
:102526000751C006C00790007AE0FEA3E0FBAA06AA
:10253600E4F9F8D007D00612060A90005EEEF0A382
:10254600EFF0122CD39001FDE0FEA3E0FF64014EF4
:10255600700F900308E0249CF0900307E034FF809E
:1025660013EF64024E7015900308E02464F09003A4
:0D25760007E03400F0E49001FDF0A3F02236
:10228200E49003B5F0A3F0A3F0A3F01229507B0170
:102292007A0379071229B3900074E0FEA3E0FF905D
:1022A2000307E0FCA3E0FD900072E0FAA3E0FB125A
:1022B2001CDD122A719001FDE07004A3E06401703C
:1022C200D6122C927BFF7A0E7938122691E4900175
:1022D200FD02237F9001FDE07004A3E0640370031C
:1022E200022385900074E0FEA3E0FF900307E0FC68
:1022F200A3E0FD900072E0FAA3E0FB121CDD1224C1
:10230200A69003B6E004F070069003B5E004F090E6
:1023120003B5E0FEA3E0FF7C007D051204D3ED4C83
:1023220070B2900074E0FCA3E0FD9003B7E0FAA362
:10233200E0FB25E0FFEA33FE747C2FF58274003E59
:10234200F583ECF0A3EDF0AF0312239EE49003B506
:10235200F0A3F09003B8E004F070069003B7E00435
:10236200F09003B7E07004A3E0648060030222D619
:102372007BFF7A0E7938122691E49003B7F0A3F02E
:102382000222D6E490005EF0A3F0FFFE122CD3E40A
:0C2392009001FDF0A3F0122B7E022299B6
:030013000228E5DB
:1028E500C0E0C0F0C083C082C0D075D000C000C0B9
:1028F50001C002C003C004C005C006C0077F147E26
:1029050000122C10AF85EF24036011146019240305
:10291500701E9001FDE4F0A304F080149001FDE425
:10292500F0A37402F080099001FDE4F0A37403F0B4
:10293500D007D006D005D004D003D002D001D000F6
:0B294500D0D0D082D083D0F0D0E032A0
:0419B80041040800DE
:102C2B00759102C3E49FFFE49EF5938F9274FFF5B9
:0A2C3B0095F59453E7FE439104223F
:102C720075E8C475D10375BB0175BC2053BCF8431C
:032C8200E7022244
:092CCA00EF6003D2EF22C2EF22F9
:03007B0002280058
:10280000C0E0C0F0C083C082C0D075D000C000C09E
:1028100001C002C003C004C005C006C007C2EDE489
:10282000FF122B9D900408E025E02404F582E43497
:1028300004F583EEF0A3EFF0900408E004F0E0B4B8
:102840000202E4F0900408E0F5BB9001B5E004F06A
:1028500070069001B4E004F0D007D006D005D00493
:10286000D003D002D001D000D0D0D082D083D0F01D
:03287000D0E03283
:102B9D00EF6008AF9C7C00AD07800AAFBE7C00AD36
:0D2BAD0007AFBFAB07EBFEE42DFFEE3CFED3
:012BBA0022F8
:102BBB00EFC394025012EF25E02404F582E43404B1
:0D2BCB00F583E0FEA3E0FF227EFF7FFF22E6
:0400160075D48022FB
:062CD3008FD2EEF5D322C2
:102C5C00E4FDFCC3ED9FEC9E500B000000000DBD8D
:052C6C0000010C80EEE8
:012C71002240
:042C1000AB07AA065E
:102C1400900000C3E5829BE5839A500A7FE87E0317
:062C2400122C5CA380ED00
:012C2A002287
:0A2CB700EF1F70011E144E70F7228B
:102BD80075B167E4FFFE0FBF00010EE4B507F7EE1D
:0B2BE800B401F3E5B130E7FB75B288E3
:012BF30022BF
:102BF40043B50143E3405384FD43E21443E34443B8
:0C2C0400A40375A5FF75A6FF75A7FF22AD
:10000300C2AF75FFDE75FFADD2AF122BD8022BF452
:0B2CAC00C28AD2AAD2AFD28AD2AA22DA
:102B5E0080818283848586879091929394959697AF
:102B6E0088898A8B8C8D8E8F98999A9B9C9D9E9F1F
:0700740043A53843E34022DD
:102B7E001200747F30122AC57F03122AC57F0C12F1
:0F2B8E002AC57F01122AC57F06122AC5022C9282
:102AD400122AE5EC54F0FF122AE5AF04EFC454F0D7
:012AE400FFF2
:102AE500E4FEC293EF25E0FF9294D293C2930EEEDB
:032AF500B408EF33
:012AF80022BB
:102A3B00E4FFFEFDEF25E0FFC293D293C2933094E7
:102A4B00010F0DEDB408EDE4FDEE25E0FEC293D2CF
:102A5B0093C2933094010E0DEDB408EDEE540FFEBE
:052A6B00EF54F02EFF06
:012A70002243
:0D2C85007FFC122AE5122A3BEF20E7F42223
:102AA400E0FF9003B9E075F008A42FF582E435F057
:102AB400F583E582245EF582E583342BF583E49384
:012AC400FF12
:0F2AC500AC07D295122C857FF8122AD4C2952225
:102AF9009003B9E0FBA3E475F001120509A9F0FA06
:042B0900120465FF4E
:0F2B0D00AC07D295122C857FFA122AD4C29522DA
:022B3D00AB07E4
:102B3F007F30122AC5EB75F008A4245EF582E412EB
:0E2B4F002ABEE4FB7F20122B0D0BEBB410F618
:012B5D002255
:0C2C9200E4FAAF02122B3D0AEAB404F68B
:012C9E002213
:102C4500A907AA057F30122AC575F008E9A42A123A
:072C55002AAFAF03022B0DB3
:10001E009003B9EFF0A3EDF07F30122AC5122AA497
:10002E0012046560409003BAE0B40808E4F090034F
:10003E00B9E004F09003B9E0B40402E4F09003BA1E
:10004E00122AA4122B09740129F9E43AFA12046552
:10005E00FF6012122B0D740129F9E43AFA9003BADB
:06006E00E004F080BB225B
:0B2691009003B9EBF0A3EAF0A3E9F01E
:10269C00E4A3F09003BCE0FFC39402505AEF75F032
:1026AC0008A424809003BFF0E49003BDF0E49003F1
:1026BC00BEF07F34122AC59003BDE02480FF122A9D
:1026CC00C5A3E0FFA3E02FFF122AC57F30122AC555
:1026DC00122AF9122AF99003BEE004F0E0C3940820
:1026EC0040D09003BDE004F0E0C3942040BF9003C1
:1026FC00BCE004F002269F7F32122AC57F36022AE4
:01270C00C507
:10239E00EFC4540F9003B9F0EF540FA3F0EF25E004
:1023AE00247CF582E43400F583E0FEA3E0FF7C009C
:1023BE007D801204D39003BBEFF0E4A3F0FBFA9000
:1023CE0003BAE0FFEAD39F503F9003B9E0C454F044
:1023DE002A25E0247CF582E43400F583E0FEA3E0B8
:1023EE00FF7C007D801204D39003BBE07C00B50718
:1023FE0017ECB50613A3E0FF7480A802088002C391
:10240E0013D8FC4F9003BCF0EA2408FFE433FE908F
:10241E0003BAE0FDD3EF9D7480F86E9850399003A7
:10242E00B9E0C454F02A25E0248CF582E43400F59A
:10243E0083E0FEA3E0FF7C007D801204D39003BBFB
:10244E00E07C00B50711ECB5060D7480A80208807B
:10245E0002C313D8FC4BFB0AEA640860030223CDC7
:10246E007F34122AC59003BBE0FFC3749F9FFF12F7
:10247E002AC59003B9E02480FF122AC57F30122AA4
:10248E00C59003BCE0FF122B0DAF03122B0D7F3254
:08249E00122AC57F36022AC58F
:10260F00EE707BEFB41000507590261FF8282873DA
:10261F0002264F02265102265502265902265D0236
:10262F00266102266502266902266D0226710226A0
:10263F007502267902267D022681022685022689C9
:10264F00803C7596F9227596A4227596B0227596E0
:10265F00992275969222759682227596F822759612
:10266F00802275969022759688227596832275968C
:10267F00C6227596A1227596862275968E2275961C
:02268F00C02267
:10270D00EE7078EF14B40C00507190272575F0031E
:10271D00A4C58325F0C5837302274902274E0227DE
:10272D005302275802275D02276202276702276C92
:10273D0002277302277802277D0227827585FE8086
:10274D00217585FD801C7585FB80177585F78012B9
:10275D007585EF800D7585DF80087585BF800375E4
:10276D00857F7586FF227586FE800D7586FD800836
:0C277D007586FB80037586F77585FF22CA
:042CD90043E340226F
:0D2C9F00122CD97585FF43860F7596FF2214
:0E1CDD009003B9EEF0A3EFF0A3ECF0A3EDF04E
:101CEB009003B9E0FEA3E0FF7C007D0A12047E9016
:101CFB0003BDEDF09003B9E0FEA3E0FF7C007D6433
:101D0B0012047E7E007F0ACFCDCFCECCCE12047EC6
:101D1B009003BEEFF09003B9E0FEA3E0FF7C037DE0
:101D2B00E812047E7E007F64CFCDCFCECCCE1204E2
:101D3B007E9003BFEFF09003B9E0FEA3E0FF7C03BE
:101D4B007DE812047E9003C0EFF09003BBE0FEA38E
:101D5B00E0FF7C007D0A12047E9003C1EDF090033E
:101D6B00BBE0FEA3E0FF7C007D6412047E7E007F5F
:101D7B000ACFCDCFCECCCE12047E9003C2EFF09023
:101D8B0003BBE0FEA3E0FF7C037DE812047E7E0034
:101D9B007F64CFCDCFCECCCE12047E9003C3EFF0B9
:101DAB009003BBE0FEA3E0FF7C037DE812047E9072
:101DBB0003C4EFF07C007D0AAF03AE0212047EA3D6
:101DCB00EDF07C007D64AF03AE0212047E7E007FDB
:101DDB000ACFCDCFCECCCE12047EA3EFF07C037D09
:101DEB00E8AF03AE0212047E7E007F64CFCDCFCE70
:101DFB00CCCE12047EA3EFF0AE02AF037C037DE8E2
:101E0B0012047EA3EFF07F047E0012270D9003BD1A
:101E1B00E0FF12260F7FF40E122CB77596FF7F038F
:101E2B007E0012270D9003BEE0FF12260F7FF40EEB
:101E3B00122CB77596FF7F027E0012270D9003BF01
:101E4B00E0FF12260F7FF40E122CB77596FF7F0161
:101E5B007E0012270D9003C0E0FF12260F53967FD2
:101E6B009003C0E070037596FF7FF47E01122CB7D0
:101E7B007596FF7F087E0012270D9003C1E0FF12BD
:101E8B00260F7FF40E122CB77596FF7F077E00127C
:101E9B00270D9003C2E0FF12260F7FF40E122CB712
:101EAB007596FF7F067E0012270D9003C3E0FF128D
:101EBB00260F7FF40E122CB77596FF7F057E00124E
:101ECB00270D9003C4E0FF12260F53967F7FF40E6D
:101EDB00122CB77596FF7F0C7E0012270D9003C551
:101EEB00E0FF12260F7FF40E122CB77596FF7F0BB7
:101EFB007E0012270D9003C6E0FF12260F7FF40E13
:101F0B00122CB77596FF7F0A7E0012270D9003C720
:101F1B00E0FF12260F7FF40E122CB77596FF7F0988
:101F2B007E0012270D9003C8E0FF12260F53967FF9
:091F3B007FF40E122CB77596FF1D
:011F4400227A
:10007E00020450E86480F8E933E83360110460F05C
:10008E00ED33EC337009E8FCE9FDEAFEEBFF2204E8
:10009E0060DED3EB9FEA9EE99DE8C2E78CF0C2F7E3
:1000AE0095F0400CE8CCF8E9CDF9EACEFAEBCFFBAF
:1000BE0012041B85D0F05804700320D5B3E80470E9
:1000CE00075002B2D502045A92D5EC0460F7E4CC84
:1000DE00C0E0C398F8603B94186008400DD0E0FB78
:1000EE00020432E4FBFAC9FC8028E830E406E4C9D5
:1000FE00FBE4CAFCE830E305E4C9CACBFCE85407CC
:10010E006010F8C3E913F9EA13FAEB13FBEC13FCD6
:10011E00D8F130F52FC3E49CFCEF9BFFEE9AFEED79
:10012E0099FDD0E0FBEF4E4D4C701222DB03020422
:10013E0057EC2CFCEF33FFEE33FEED33FDED30E7E5
:10014E00EB020432EF2BFFEE3AFEED39FDD0E0FB71
:10015E0050130BBB000302045AED13FDEE13FEEF1A
:08016E0013FFEC13FC02043244
:10017600EC4D6011E8497017ED33EC3304600DE483
:10018600FCFFFEFD22E933E8330470F80204501246
:10019600041B58046009E4CC248150062850090247
:1001A600045A284003020457C0E0EB4A7044B98061
:1001B60006D0E0FB020446EF4E701CBD8008EBFF44
:1001C600EAFEE9FD80EBE98DF0A4FEE5F002025FB0
:1001D600E9CDF9EAFEEBFFEF89F0A4FCE5F0CE8964
:1001E600F0A42EFFE435F0CD89F0A42DFEE435F021
:1001F6008067EF4E7005BD80D780C3EF8BF0A4AC4F
:10020600F0EE8BF0A42CFCE435F0F8EF8AF0A42C89
:10021600E5F038FCE433CB8DF0A42CFCE5F03BF89C
:10022600EE8AF0A42CFCE5F038F8E433CF89F0A48C
:100236002CFCE5F038CF3400CE89F0A42FFFE5F092
:100246003EFEE433C98DF0A42EFEE5F039CD8AF0EA
:10025600A42FFFE5F03EFEE43DFD33D0E0FB500762
:100266000BBB000F02045AEC2CFCEF33FFEE33FEFF
:06027600ED33FD0204322D
:10027C0002045AEC5D046005E85904700302045052
:10028C0012041B580460F6EC4860F2EC7004FDFE9E
:10029C00FF22C860DB2481C85009C3986002500655
:1002AC000204579850CAF582E9294B4A7005AB8273
:1002BC0002044675F0007C1A7880C3EF9BEE9AED31
:1002CC0099400DC3EF9BFFEE9AFEED99FDE842F0CD
:1002DC00DC23ACF0D0E0FFD0E0FED0E0FDAB822020
:1002EC00E7101BEB60BAEC2CFCEF33FFEE33FEEDAA
:1002FC0033FD020432E803F830E705C0F075F00076
:10030C00EF2FFFEE33FEED33FD40B830E7C280AA8D
:10031C0074F8CC6480CCC86480C8F58204604FC388
:10032C00EB9FF5F0EA9E42F0E99D42F0E89C45F027
:10033C00603C501DE5825FFFE582D313CB5BCBF4B1
:10034C002B5582FB50280ABA002409B900200880DA
:10035C001DE5825BFBE582D313CF5FCFF4C3132F74
:10036C005582FF50090EBE00050DBD00010CC3EBFC
:10037C009FF5F0EA9E42F0E99D42F0E89C45F06062
:09038C0007CC4820E701B3EC2284
:10039500ED33EC33600A047003BD8004ECB2E7FC76
:0103A5002235
:1003A60075F020800E75F010800575F0087D007ED2
:1003B600007F003392D530D50312069CEC334010F3
:1003C600EF33FFEE33FEED33FDEC33FCD5F0ED22DB
:0E03D600E5F0247EA2D513CC92E7CDCEFF2217
:1003E400EDD2E7CD33EC3392D524814006E4FFFE11
:1003F400FDFC22FCE4CFCECDCC24E0501174FF8070
:10040400EDC3CC13CCCD13CDCE13CECF13CF04700C
:07041400F030D5DE02069C6A
:10041B00E9D2E7C933E833F892D5EDD2E7CD33EC27
:07042B0033FC5002B2D522A0
:10043200EC30E7100FBF000C0EBE00080DBD00042B
:100442000BEB6014A2D5EB13FCED92E7FD2274FFD7
:10045200FCFDFEFF22E480F8A2D574FF13FC7D8030
:03046200E480EF44
:0300000002258353
:0C258300787FE4F6D8FD7581070225CAB8
:10046500BB010689828A83E0225002E722BBFE0295
:09047500E32289828A83E49322C8
:10047E00BC000BBE0029EF8DF084FFADF022E4CC62
:10048E00F875F008EF2FFFEE33FEEC33FCEE9DEC2B
:10049E00984005FCEE9DFE0FD5F0E9E4CEFD22ED71
:1004AE00F8F5F0EE8420D21CFEADF075F008EF2FBB
:1004BE00FFED33FD4007985006D5F0F222C398FDAC
:0504CE000FD5F0EA2249
:1004D300C2D5EC30E709B2D5E4C39DFDE49CFCEE44
:1004E30030E715B2D5E4C39FFFE49EFE12047EC33A
:1004F300E49DFDE49CFC800312047E30D507C3E435
:060503009FFFE49EFE22B2
:10050900A3F8E0C5F025F0F0E582158270021583A5
:06051900E0C838F0E82202
:10051F00BB010A89828A83E0F5F0A3E022500687A7
:10052F00F009E71922BBFE07E3F5F009E319228969
:0B053F00828A83E493F5F0740193229C
:10054A00BB0110E58229F582E5833AF583E0F5F0EF
:10055A00A3E0225009E92582F886F008E622BBFECC
:10056A000AE92582F8E2F5F008E222E5832AF58312
:08057A00E993F5F0A3E99322D7
:10058200BB010A89828A83F0E5F0A3F0225006F7C4
:0F05920009A7F01922BBFE06F3E5F009F31922C1
:1005A100F8BB0111E58229F582E5833AF583E8F08C
:1005B100E5F0A3F0225009E92582C8F608A6F02249
:0D05C100BBFE09E92582C8F2E5F008F22230
:1005CE0075F008758200EF2FFFEE33FECD33CDCCE4
:1005DE0033CCC58233C5829BED9AEC99E582984067
:1005EE000CF582EE9BFEED9AFDEC99FC0FD5F0D644
:1005FE00E4CEFBE4CDFAE4CCF9A88222B800C1B96E
:10060E000059BA002DEC8BF084CFCECDFCE5F0CBAB
:10061E00F97818EF2FFFEE33FEED33FDEC33FCEBE4
:10062E0033FB10D703994004EB99FB0FD8E5E4F99F
:10063E00FA227818EF2FFFEE33FEED33FDEC33FC8C
:10064E00C933C910D7059BE99A4007EC9BFCE99A80
:10065E00F90FD8E0E4C9FAE4CCFB2275F010EF2FC5
:10066E00FFEE33FEED33FDCC33CCC833C810D707C5
:10067E009BEC9AE899400AED9BFDEC9AFCE899F800
:0E068E000FD5F0DAE4CDFBE4CCFAE4C8F92293
:0E069C00C3E49FFFE49EFEE49DFDE49CFC226F
:1006AA00BB010789828A830206E45005E9F802073A
:0A06BA00B4BBFE05E9F80207C022F8
:1006C400BB010789828A8302078B5005E9F8020778
:1006D4007EBBFE05E9F802079789828A830207A494
:0C06E400ECF0A3EDF0A3EEF0A3EFF02289
:1006F000A8828583F0D083D08212070712070712E1
:100700000707120707E473E493A3C583C5F0C58305
:10071000C8C582C8F0A3C583C5F0C583C8C582C853
:0107200022B6
:10072100BB010DE58229F582E5833AF5830206F0E6
:100731005007E92582F80207CCBBFE07E92582F8BC
:040741000207E522A4
:0C074500A42582F582E5F03583F58322BF
:10075100EC8EF0A4CCC5F0CCCDF8EFA4CEC5F02D35
:10076100FDE43CFCE8A42EC8C5F03DFDE43CFCEFF3
:0D077100A4FFE5F028FEE43DFDE43CFC2281
:10258F00022282E493A3F8E493A34003F68001F2BE
:10259F0008DFF48029E493A3F85407240CC8C3334D
:1025AF00C4540F4420C8834004F456800146F6DF1C
:1025BF00E4800B0102040810204080901616E47E80
:1025CF00019360BCA3FF543F30E509541FFEE49311
:1025DF00A360010ECF54C025E060A840B8E493A3D8
:1025EF00FAE493A3F8E493A3C8C582C8CAC583CA03
:1025FF00F0A3C8C582C8CAC583CADFE9DEE780BEBB
:0119BC00002A
:0D077E00E6FB08E6F908E6FA08E6CBF822EB
:0C078B00E0F8A3E0F9A3E0FAA3E0FB22F1
:0D079700E2FB08E2F908E2FA08E2CBF822E2
:1007A400E493F8740193F9740293FA740393FB22AB
:0C07B400ECF608EDF608EEF608EFF62271
:0C07C000ECF208EDF208EEF208EFF22275
:1007CC00D083D082E493F608740193F608740293F4
:0907DC00F608740393F67404732B
:1007E500D083D082E493F208740193F208740293E3
:0907F500F208740393F27404731A
:00000001FF
