:03000000020107F3
:0C010700787FE4F6D8FD7581090200B491
:10008000D4D4BED49FA9D4D4BED48E9FD4D46A7EF7
:1000900081A9BE77777E9F8E9F0009030C0C0C18F8
:1000A00009030C0C0C1809030C0C0C0C0C09030CA8
:0400B0000C0C18001C
:1000D700D3EF9400EE940040147D727C00ED1D7008
:0D00E700011CED4C70F7EF1F70E61E80E36A
:0100F40022E9
:10000300E4FBFA749A2BF58274003AF583E4937057
:100013000E74802BF58274003AF583E493605DE4FB
:10002300F508F509749A2BF58274003AF583E49385
:1000330075F014A4FFC3E5099FE50895F0502FB2AE
:10004300B0E4FFFE74802BF58274003AF583E493E9
:1000530075F00384FDC3EF9DEE940050070FBF00BE
:10006300010E80E00509E50970BA050880B67F0A2C
:0C0073007E001200D70BBB00010A808742
:01007F00225E
:0200F500AB0757
:0F00F700E4FAB2B0EBFF7E001200D70ABA64F34E
:0101060022D6
:1000B4007590FF2090031200032091057F01120028
:1000C400F52092057F021200F52093E77F031200CA
:0300D400F580E0D4
:00000001FF
