:03000000020417E0
:0C041700787FE4F6D8FD758116020359C9
:1003EE00010203040506C0F9A4B0999282F8809028
:0B03FE008883C6A1868EFF0C897FBF9C
:0803C60093F58075A0407F054E
:1003CE007E00D3EF9400EE940040147D6E7C00ED21
:0F03DE001D70011CED4C70F7EF1F70E61E80E3E1
:0103ED0022ED
:0E040900C2B67FF41203CED2B67FF40203CE49
:10039A009003EEE493650F7020A3936510701AA37F
:1003AA0093B51115A3E493B5120FA3E493B51309FA
:0C03BA00A3E493B514037F01227F00220E
:10028000E50ED394005003020355E50E14B40700A5
:1002900040030203519002A375F003A4C58325F027
:1002A000C583730202B80202CA0202DC0202EE0235
:1002B0000300020312020324BF1503E4F50E8F08A6
:1002C000BF1403E4F50E85080F22BF1503750E0158
:1002D0008F09BF1403750E0185091022BF15037520
:1002E0000E028F0ABF1403750E02850A1122BF1574
:1002F00003750E038F0BBF1403750E03850B1222BB
:10030000BF1503750E048F0CBF1403750E04850C06
:100310001322BF1503750E058F0DBF1403750E054F
:10032000850D1422750E06EF6415702C12039AEFDA
:10033000700D120409120409120409D2B7800EC20A
:10034000B77FF41203CE7FF41203CED2B7E4F50EDA
:0903500022750E06221204092296
:10015E00E50E24FE601E14602B14604814607514A6
:10016E0070030202212405600302027FE50890035A
:10017E00F402026EE5089003F41203C67580FFE5E3
:10018E000902026EE5089003F493F58075A0207FB6
:10019E00051203CE7580FFE5091203C67580FFE5D3
:1001AE000A02026EE5089003F493F58075A0107FA5
:1001BE00051203CE7580FFE50993F58075A0207FAB
:1001CE00051203CE7580FFE50A1203C67580FFE5A2
:1001DE000B02026EE5089003F493F58075A0087F7C
:1001EE00051203CE7580FFE50993F58075A0107F8B
:1001FE00051203CE7580FFE50A93F58075A0207F6A
:10020E00051203CE7580FFE50B1203C67580FFE560
:10021E000C804DE5089003F493F58075A0047F05DE
:10022E001203CE7580FFE50993F58075A0087F0552
:10023E001203CE7580FFE50A93F58075A0107F0539
:10024E001203CE7580FFE50B93F58075A0207F0518
:10025E001203CE7580FFE50C1203C67580FFE50D07
:10026E0093F58075A0807F051203CE7580FFE4F5AF
:02027E00A022BC
:100003007590FE8590155315F0E51564F060537FE8
:100013000A1203CE8590155315F0E51564F060427E
:10002300859015E5152482602124C0601624E060C4
:100033000B24F0701AE4F516050E801375160105EE
:100043000E800C751602050E8005751603050EE568
:100053001564F060088590155315F080F2AF161201
:1000630002807590FD8590155315F0E51564F060D9
:10007300537F0A1203CE8590155315F0E51564F0EE
:100083006042859015E5152483602124C060162401
:10009300E0600B24F0701A751604050E80137516B4
:1000A30005050E800C751606050E800575160705E9
:1000B3000EE51564F060088590155315F080F2AFD6
:1000C300161202807590FB8590155315F0E51564A3
:1000D300F0603D7F0A1203CE8590155315F0E515A8
:1000E30064F0602C859015E5152425600B24F070D1
:1000F3000C751608050E8005751609050EE51564C1
:10010300F060088590155315F080F2AF1612028047
:100113007590F78590155315F0E51564F0603B7FF6
:100123000A1203CE8590155315F0E51564F0602A85
:10013300859015E5152429600924F0700A751614B5
:100143008005751615050EE51564F0600885901594
:0A0153005315F080F2AF161202807F
:01015D00227F
:10035900E50E702E75808C75A0017F051203CE7590
:1003690080FF75808675A0027F051203CE7580FF18
:10037900900408E493F58075A0FC7F051203CE75FF
:1003890080FFE50EC39401400312015E1200038051
:01039900BFA4
:00000001FF
