:03000000020913DF
:0C091300787FE4F6D8FD75810902080029
:1008660000C4CAD0D3D8DCE0E2E5E8E9ECEEF0F16A
:10087600F2F4F4F6F7F8000C1B150704100C040C40
:1008860009140208060216051A0104030C0C0D0CC5
:100896000F0E0C0C0D0C100F0C0C13110F0E0D007F
:1008A6001212110F100F0404080808100404080897
:1008B60008100404080808081008040408080810AA
:10080000758910758D3C758BB075B80275A88A20F6
:1008100090FD3090FDE4F508E508C3941A50F0E52A
:1008200008900892937006C297C28C8016E50890D3
:10083000089293FF90086693F58CEF90087C93F5EF
:100840008AD28CE5089008AC93F509D28E208EFDF3
:10085000C28CC297E4FFFE0FBF00010EBE07F8BFB7
:06086000D0F5050880B28E
:03000B000208C622
:1008C600C0E0C083C082C0D075D000C007B297E533
:1008D6000890089293FF90086693F58CEF90087C39
:0E08E60093F58AD007D0D0D082D083D0E032F4
:03001B000208F4E4
:1008F400C0E0C0D075D000C007758D3C758BB0AF1B
:0F090400091509EF7002C28ED007D0D0D0E032B3
:00000001FF
