:030000000201D624
:0C01D600787FE4F6D8FD75812002021D40
:10026200020B024B029302BA0310037003DC041761
:10027200049705270575062006E007B8FC8FFCEFFA
:10028200FD45FD6CFDB5FDF5FE2EFE48FE78FEA394
:10029200FEB7FEDBFEFBFF170102030101020301B1
:1002A2000304050304050506050403010506050408
:1002B200030101050101050104040404040404040A
:1002C20004040204040210040410040404040204DA
:0202D200040224
:0A031400C180C101010DFF010E00C0
:1002D400D2AF758901850D8C850E8AD2A9D28C7F07
:0D02E400481201097F407E9C1202F180F259
:1002F100E4FDFCC3ED9FEC9E50070DBD00010C8099
:01030100F209
:0103020022D8
:020109008F085D
:10010B00E4F50BF50CFDFCFFFEF509E509C39420A6
:10011B0040030201D53001FDC201E50C450B707E99
:10012B00E50990029A9314F50A25E0247EF582E402
:10013B003402F583E493FC740193FDECF50D8D0E05
:10014B00E5099002BA93FF7E00AD087C001200DC3B
:10015B00C004A905AA06AB07E50A25E02462F582CF
:10016B00E43402F583E493FE740193FF7C007DF08D
:10017B001200DCD00012004AAC06AD07ED7802CEBF
:10018B00C313CE13D8F9FFC3ED9FFFEC9EFED20035
:10019B00050CE50C6003020116050B020116E50CBC
:1001AB00B5050FE50BB5040AE4F50BF50C050902D3
:1001BB000116050CE50C7002050B6F7003E50B6E59
:0A01CB006003020116C200020116D3
:0101D5002207
:03000B00020303EA
:10030300850D8C850E8AD201300003B29632D296C7
:0103130032B7
:1001E2000202D4E493A3F8E493A34003F68001F25D
:1001F20008DFF48029E493A3F85407240CC8C3331E
:10020200C4540F4420C8834004F456800146F6DFEC
:10021200E4800B0102040810204080900314E47E65
:10022200019360BCA3FF543F30E509541FFEE493E1
:10023200A360010ECF54C025E060A840B8E493A3A8
:10024200FAE493A3F8E493A3C8C582C8CAC583CAD3
:10025200F0A3C8C582C8CAC583CADFE9DEE780BE8B
:01031E0000DE
:10000E0075F008758200EF2FFFEE33FECD33CDCCA9
:10001E0033CCC58233C5829BED9AEC99E58298402C
:10002E000CF582EE9BFEED9AFDEC99FC0FD5F0D609
:10003E00E4CEFBE4CDFAE4CCF9A88222B800C1B933
:10004E000059BA002DEC8BF084CFCECDFCE5F0CB71
:10005E00F97818EF2FFFEE33FEED33FDEC33FCEBAA
:10006E0033FB10D703994004EB99FB0FD8E5E4F965
:10007E00FA227818EF2FFFEE33FEED33FDEC33FC52
:10008E00C933C910D7059BE99A4007EC9BFCE99A46
:10009E00F90FD8E0E4C9FAE4CCFB2275F010EF2F8B
:1000AE00FFEE33FEED33FDCC33CCC833C810D7078B
:1000BE009BEC9AE899400AED9BFDEC9AFCE899F8C6
:0E00CE000FD5F0DAE4CDFBE4CCFAE4C8F92259
:1000DC00EC8EF0A4CCC5F0CCCDF8EFA4CEC5F02DB1
:1000EC00FDE43CFCE8A42EC8C5F03DFDE43CFCEF6F
:0D00FC00A4FFE5F028FEE43DFDE43CFC22FD
:00000001FF
